:100000000C942A000C9447000C9447000C94470071
:100010000C9447000C9447000C9447000C94470044
:100020000C9447000C9447000C9447000C94470034
:100030000C9447000C9447000C9447000C94470024
:100040000C9447000C9447000C9447000C94470014
:100050000C94470011241FBECFE5D8E0DEBFCDBF12
:1000600010E0A0E6B0E0EAE5F1E002C005900D92F4
:10007000A036B107D9F710E0A0E6B0E001C01D92AC
:10008000A236B107E1F70E9449000C94AB000C9432
:100090000000DF93CF93CDB7DEB787E390E021E098
:1000A000FC0120838AE390E02EEFFC0120830E9474
:1000B0007E00CF91DF910895DF93CF9300D0CDB72D
:1000C000DEB79A83898389819A81909361008093B6
:1000D000600009C080916000909161000197909349
:1000E00061008093600080916000909161000097B2
:1000F00089F70F900F90CF91DF910895DF93CF9301
:1001000000D0CDB7DEB71A82198201C0000088E3A3
:1001100090E021E0FC0120831A82198205C08981C8
:100120009A8101969A83898389E390E0FC0180811A
:100130008823A9F389819A81009741F388EE9DEF86
:100140000E945C0088E390E0FC01108289819A8122
:0A0150000E945C00DCCFF894FFCFA2
:00000001FF
